:100000000C94DA000C9402010C9402010C9402018D
:100010000C9402010C9402010C9402010C94020154
:100020000C9402010C9402010C9402010C94020144
:100030000C9402010C9402010C9402010C94020134
:100040000C949C020C9402010C940C030C94E60298
:100050000C9402010C9402010C9402010C94020114
:100060000C9402010C94020100407A10F35A00A093
:10007000724E18090010A5D4E80000E87648170071
:1000800000E40B54020000CA9A3B000000E1F505B1
:10009000000080969800000040420F000000A086FB
:1000A00001000000102700000000E803000000002D
:1000B0006400000000000A000000000001000000D1
:1000C00000002C76D888DC674F0823DFC1DFAE59EB
:1000D000E1B1B796E5E3E453C63AE651997696E87E
:1000E000E6C28426EB898C9B62ED407C6FFCEFBC02
:1000F0009C9F40F2BAA56FA5F490055A2AF75C932D
:100100006B6CF9676DC11BFCE0E40D47FEF520E662
:10011000B500D0ED902E0300943577050080841E45
:10012000080000204E0A000000C80C333333330FA0
:10013000986E12831141EF8D2114893BE65516CF3D
:10014000FEE6DB18D1844B381BF77C1D901DA4BB49
:10015000E424203284725E228100C9F124ECA1E5FE
:100160003D2700000000240027002A0000000000B6
:10017000250028002B0004040404040404040202E3
:100180000202020203030303030301020408102016
:100190004080010204081020010204081020000021
:1001A0000008000201000003040700000000000036
:1001B0000000AD0511241FBECFEFD8E0DEBFCDBFDC
:1001C00021E0A4E3B1E001C01D92A23EB207E1F735
:1001D00011E0A0E0B1E0E0EDF8E102C005900D9281
:1001E000A433B107D9F710E0CAEDD0E004C02197DD
:1001F000FE010E946E0AC93DD107C9F70E943E0365
:100200000C94660C0C940000AF92BF92CF92DF92D8
:10021000EF92FF920F931F93CF93DF936C017B01BB
:100220008B01040F151FEB015E01AE18BF08C0174C
:10023000D10759F06991D601ED91FC910190F081BF
:10024000E02DC6010995892B79F7C501DF91CF9182
:100250001F910F91FF90EF90DF90CF90BF90AF90E4
:100260000895FC01538D448D252F30E0842F90E0BC
:10027000821B930B541710F0CF96089501970895A1
:10028000FC01918D828D981761F0A28DAE0FBF2F6A
:10029000B11D5D968C91928D9F5F9F73928F90E0C0
:1002A00008958FEF9FEF0895FC01918D828D98172F
:1002B00031F0828DE80FF11D858D90E008958FEF6C
:1002C0009FEF0895FC01918D228D892F90E0805C35
:1002D0009F4F821B91098F739927089584E391E0C2
:1002E0000E94620121E0892B09F420E0822F089509
:1002F00080E090E0892B29F00E946E0181110C941E
:1003000000000895FC01A48DA80FB92FB11DA35AB8
:10031000BF4F2C91848D90E001968F739927848F25
:10032000A689B7892C93A089B1898C918370806448
:100330008C93938D848D981306C00288F389E02DE9
:1003400080818F7D80830895EF92FF920F931F939A
:10035000CF93DF93EC0181E0888F9B8D8C8D981378
:100360001AC0E889F989808185FF15C09FB7F89484
:10037000EE89FF896083E889F989808183708064D0
:1003800080839FBF81E090E0DF91CF911F910F911B
:10039000FF90EF900895F62E0B8D10E00F5F1F4F2A
:1003A0000F731127E02E8C8D8E110CC00FB607FC39
:1003B000FACFE889F989808185FFF5CFCE010E94C7
:1003C0008201F1CFEB8DEC0FFD2FF11DE35AFF4FB2
:1003D000F0829FB7F8940B8FEA89FB898081806255
:1003E000CFCFCF93DF93EC01888D8823B9F0AA8912
:1003F000BB89E889F9898C9185FD03C0808186FDE0
:100400000DC00FB607FCF7CF8C9185FFF2CF80812E
:1004100085FFEDCFCE010E948201E9CFDF91CF9120
:1004200008950F931F93CF93DF93EC0188819981F7
:10043000009759F02A813B812617370730F081E079
:10044000DF91CF911F910F9108958B016F5F7F4FC7
:100450000E94990B009759F0998388831B830A8324
:100460002C813D81232B59F7FC011082E8CF80E0DD
:10047000E7CFCF93DF93EC0188819981009711F04A
:100480000E94100B198218821D821C821B821A8204
:10049000DF91CF910895EF92FF920F931F93CF9327
:1004A000DF93EC017B018A01BA010E9411028111E4
:1004B0000BC0CE010E943902CE01DF91CF911F9176
:1004C0000F91FF90EF9008951D830C83B7018881F1
:1004D00099810E945F0CF0CFCF93DF93EC01FB0179
:1004E0008617970749F0608171816115710541F0A8
:1004F000448155810E944B02CE01DF91CF91089536
:100500000E943902F9CFFC011182108213821282FB
:1005100015821482FB0101900020E9F73197AF01A9
:10052000461B570B0C944B02FC0180819181009774
:1005300011F00C94100B08951F920F920FB60F92AA
:1005400011242F933F938F939F93AF93BF938091E9
:10055000DA019091DB01A091DC01B091DD013091D5
:10056000D90123E0230F2D3758F50196A11DB11DA8
:100570002093D9018093DA019093DB01A093DC01F1
:10058000B093DD018091D5019091D601A091D70162
:10059000B091D8010196A11DB11D8093D501909312
:1005A000D601A093D701B093D801BF91AF919F918D
:1005B0008F913F912F910F900FBE0F901F90189524
:1005C00026E8230F0296A11DB11DD2CF1F920F92D4
:1005D0000FB60F9211242F933F934F935F936F9316
:1005E0007F938F939F93AF93BF93EF93FF9384E396
:1005F00091E00E948201FF91EF91BF91AF919F9195
:100600008F917F916F915F914F913F912F910F90BB
:100610000FBE0F901F9018951F920F920FB60F925A
:1006200011242F938F939F93EF93FF93E0914401B5
:10063000F09145018081E0914A01F0914B0182FDEA
:100640001BC0908180914D018F5F8F7320914E016F
:10065000821741F0E0914D01F0E0EC5CFE4F958F88
:1006600080934D01FF91EF919F918F912F910F906A
:100670000FBE0F901F9018958081F4CFCF93DF931A
:10068000CDB7DEB7E3970FB6F894DEBF0FBECDBF90
:10069000789484B5826084BD84B5816084BD85B55D
:1006A000826085BD85B5816085BD80916E00816069
:1006B00080936E001092810080918100826080930F
:1006C0008100809181008160809381008091800011
:1006D0008160809380008091B10084608093B1003C
:1006E0008091B00081608093B00080917A00846036
:1006F00080937A0080917A00826080937A00809162
:100700007A00816080937A0080917A00806880937B
:100710007A001092C100E0914401F091450182E01D
:100720008083E0914001F09141011082E09142010B
:10073000F09143018FEC808310924C01E0914801CD
:10074000F091490186E08083E0914601F0914701F4
:10075000808180618083E0914601F0914701808132
:1007600088608083E0914601F09147018081806834
:100770008083E0914601F091470180818F7D8083E5
:1007800041E9E42E41E0F42EF70124915DE7C52E06
:1007900051E0D52EF6018491882399F090E0880FDE
:1007A000991FFC01EE59FE4FA591B491FC01E4594B
:1007B000FE4F859194918FB7F8949C91292B2C939F
:1007C0008FBF90E4392E00E110E0412C512C320112
:1007D00030927C0080917A00806480937A008091CE
:1007E0007A0086FDFCCF6091780070917900072E29
:1007F000000C880B990B0E9436089B01AC01C301C9
:10080000B2010E948B092B013C010150110901F733
:1008100020E030E040E85DE30E9495082B013C01B8
:1008200020E030E04FE754E40E942F0887FF4FC1DB
:1008300020E030E040EA50E4C301B2010E94950894
:1008400020E030EC4FE754E40E94F70920E030E06C
:10085000A9010E948B092B013C0120E030E44CE10E
:1008600056E40E9495084B015C01A301920160E0EF
:1008700070E080EA90E40E948A099B01AC01C50106
:10088000B4010E94F7094B015C01E5EAF1E08491B3
:10089000F7019491F60124912223E1F0882359F085
:1008A000833009F42CC108F01FC1813009F42DC137
:1008B000823009F42EC1E22FF0E0EE0FFF1FE45961
:1008C000FE4FA591B4918FB7F8942C9190959223F7
:1008D0009C938FBF20E030E04AE754E4C501B401A7
:1008E0000E942F0869E171E087FD18C020E030E028
:1008F0004AE754E4C501B4010E94690A181664F479
:1009000020E034E244E759E4C501B4010E942F0815
:1009100068E171E087FD02C06DE171E0CE018E9665
:100920000E9483021BA21AA21DA21CA21FA21EA229
:100930008E010F5F1F4F22E044E0C301B2010E940D
:10094000DA05009709F4F2C0FC0101900020E9F7F4
:100950003197AF01481B590BBC01CE0182960E9412
:100960004B021A8219821C821B821E821D82BE01CA
:100970006E5D7F4FCE0101960E946C020D811E813B
:100980000F5F1F4FB801CE0101960E941102811125
:10099000D2C0CE0101960E94390219A618A61BA644
:1009A0001AA61DA61CA6BE016F5F7F4FCE018896BA
:1009B0000E946C02CE0101960E949402CE018296A2
:1009C0000E9494022FB7F8948091DA019091DB0194
:1009D000A091DC01B091DD012FBF4091D101509178
:1009E000D2016091D3017091D401841B950BA60BA9
:1009F000B70B883E9340A105B10508F460C02FB73E
:100A0000F8948091DA019091DB01A091DC01B09122
:100A1000DD012FBF8093D1019093D201A093D30128
:100A2000B093D4011BA21AA21DA21CA21FA21EA237
:100A3000BE01685D7F4FCE0182960E946C0264E227
:100A400071E0CE0101960E9483026AA07BA061142E
:100A5000710409F47DC00EA11FA101151105B9F0A3
:100A60008D819E81080F191FB801CE0101960E9449
:100A70001102882309F46CC029813A818D819E81FD
:100A8000B301820F931F0E945F0C1E830D834D8163
:100A90005E8169817A8184E391E00E94040142E0F1
:100AA00050E060E371E084E391E00E940401CE0134
:100AB00001960E949402CE0182960E949402CE0179
:100AC00088960E949402CE018E960E94940280E045
:100AD00090E0892B09F477CE0E946E01882309F4F7
:100AE00070CE0E9400006DCE8730B1F08830D1F01A
:100AF000843009F0E0CE809180008F7D03C080912A
:100B000080008F7780938000D6CE84B58F7784BDA8
:100B1000D2CE84B58F7DFBCF8091B0008F7780934C
:100B2000B000C9CE8091B0008F7DF9CFCE01829602
:100B30000E94390216CF29813A818D819E8162E21D
:100B400071E0820F931F0E945F0C1E830D8325CFDF
:100B5000CE0101960E9439029ACFE4E3F1E01382BC
:100B6000128288EE93E0A0E0B0E084839583A683B0
:100B7000B7838AE091E09183808385EC90E095874C
:100B8000848784EC90E09787868780EC90E0918B57
:100B9000808B81EC90E0938B828B82EC90E0958B44
:100BA000848B86EC90E0978B868B118E128E138E41
:100BB000148E0895EF920F931F93CF93DF93E80164
:100BC00034E047FD34E1042E000C550B57FF03C001
:100BD000519541955109E32E022F242FAE010E9419
:100BE000F805CE01DF91CF911F910F91EF900895FD
:100BF000A9E0B0E0EEEFF5E00C9459096A01F22E9D
:100C0000B02E102FFBE3AF2EA01608F41BE31F5FDE
:100C1000012F27E0AE014F5F5F4F0E945707BC01D5
:100C20008981982F9970913009F43FC09BE2E1FCD3
:100C300004C09E2D9170E0FC3AC05E2D5071E82FEB
:100C4000E87083FF46C084E0911101C083E0EF2D7E
:100C5000E81B8F1508F0E0E0D6018E2F20E2552327
:100C600051F1992329F0D6019C93C60101966C019C
:100C700096012D5F3F4FE2FE24C08EE4D6018C9397
:100C800091E411969C93119712968C93D9018E2F13
:100C900090E281111BC0E20FF32FF11D10828EEF45
:100CA0009FEF2996ECE00C9475099DE2C6CF90E287
:100CB000C4CF2D9381508111FCCFCE0ED11CE0E02A
:100CC000D0CF8EE6D6018C9391E6DBCF9D938150F9
:100CD000E0CF482F447082FF3DC084E0911101C0F5
:100CE00083E08F1510F4EF2DE81BD6018E2F20E244
:100CF000552309F1992329F0D6019C93C601019649
:100D00006C0196012D5F3F4FE2FE1BC089E4D601C6
:100D10008C938EE411968C93119786E412968C93A3
:100D2000D9018E2F90E2882309F4B5CF9D9381508D
:100D3000FACF2D9381508111FCCFCE0ED11CE0E073
:100D4000D9CF89E6D6018C938EE611968C931197B4
:100D500086E6E4CF9B0177FF02C030E020E0A1E00F
:100D6000B0E0911102C0B0E0A0E0F9013196AE0F01
:100D7000BF1F8B2C912CBB2009F461C05401EFEFF5
:100D8000AE1ABE0AAA0DBB1DFA161B0619F014F006
:100D90004F2D4A1B511188C0E3FC59C07601A42F86
:100DA000B0E2A1114FC0C40ED11C992309F45BC05D
:100DB00040E0D6011196F60190836D01552309F4A8
:100DC00048C0012F060F9A81582F507184FF03C02D
:100DD000913309F4015010160CF047C0093008F0A7
:100DE00008E0EEE2FE2E5B01A01AB10885019194A5
:100DF000819491082F3F320729F4D601FC92F60125
:100E000031966F016217730794F1021713077CF58F
:100E1000DB01A21BB30BAA24A394B12CAC0EBD1E04
:100E2000AA0DBB1D11968C9121503109D601119646
:100E300028153905F4F0F60180836D01DBCFB12C64
:100E4000A12CA0CFF701B1937F01A150AACF91119E
:100E5000B0CFD601942F50E302C05D939150911111
:100E6000FCCFC40ED11C40E0ACCF01E0BACF80E390
:100E7000DBCF6217730731F4963388F4953311F49E
:100E8000552369F0F6018083FD01842F90E28111E2
:100E900008C0A40FB11D1C9290E080E002CF81E356
:100EA000F1CF91938150F3CF911183CF8ACF283026
:100EB00008F027E03327DA01990F311D87FD916093
:100EC00000966105710539F432602E5F3D9330E381
:100ED0002A95E1F708959F3F30F08038710561054C
:100EE00009F03C5F3C5F3D93913008F08068911DB4
:100EF000DF93CF931F930F93FF92EF92192F987F59
:100F00009695E92F96959695E90FFF27EE53FF4F9B
:100F100099273327EE24FF24A701E70105900894C1
:100F2000079428F4360FE71EF81E491F511D660F5F
:100F3000771F881F991F0694A1F70590079428F43E
:100F4000E70EF81E491F561FC11D770F881F991FF6
:100F5000661F0694A1F70590079428F4F80E491F20
:100F6000561FC71FD11D880F991F661F771F069434
:100F7000A1F70590079420F4490F561FC71FD81FEB
:100F8000990F661F771F881F0694A9F78491109503
:100F9000177041F0D695C79557954795F794E79404
:100FA0001A95C1F7E8E6F0E068941590159135912F
:100FB0006591959105907FE27395E118F10A430BD5
:100FC000560BC90BD009C0F7E10CF11E431F561F89
:100FD000C91FD01D7EF4703311F48A95E6CFE894D2
:100FE000015030F0080F0AF40027021708F4202FF0
:100FF0002395022F7A3328F079E37D932A95E9F738
:1010000010C07D932A9589F6069497956795379534
:1010100017951794E118F10A430B560BC90BD00929
:1010200098F023957E9173957A3308F070E37C9362
:101030002013B8F77E9170617D9330F0839571E352
:101040007D9370E32A95E1F71124EF90FF900F91C3
:101050001F91CF91DF91992787FD909508950E9468
:10106000710808F481E00895E89409C097FB3EF404
:1010700090958095709561957F4F8F4F9F4F9923E5
:10108000A9F0F92F96E9BB279395F6958795779563
:101090006795B795F111F8CFFAF4BB0F11F460FF23
:1010A0001BC06F5F7F4F8F4F9F4F16C0882311F07B
:1010B00096E911C0772321F09EE8872F762F05C08F
:1010C000662371F096E8862F70E060E02AF09A952A
:1010D000660F771F881FDAF7880F9695879597F91F
:1010E0000895990F0008550FAA0BE0E8FEEF1616B9
:1010F0001706E807F907C0F012161306E407F5070C
:1011000098F0621B730B840B950B39F40A2661F07F
:10111000232B242B252B21F408950A2609F4A14022
:10112000A6958FEF811D811D08950E94A8080C943B
:1011300019090E940B0938F00E94120920F095232A
:1011400011F00C9402090C94080911240C944D0917
:101150000E942A0970F3959FC1F3950F50E0551F27
:10116000629FF001729FBB27F00DB11D639FAA27FC
:10117000F00DB11DAA1F649F6627B00DA11D661F4B
:10118000829F2227B00DA11D621F739FB00DA11D6C
:10119000621F839FA00D611D221F749F3327A00D26
:1011A000611D231F849F600D211D822F762F6A2FC2
:1011B00011249F5750409AF0F1F088234AF0EE0F27
:1011C000FF1FBB1F661F771F881F91505040A9F754
:1011D0009E3F510580F00C9402090C944D095F3F2D
:1011E000E4F3983ED4F3869577956795B795F79590
:1011F000E7959F5FC1F7FE2B880F911D9695879508
:1012000097F9089597F99F6780E870E060E0089586
:101210009FEF80EC089500240A941616170618060E
:101220000906089500240A941216130614060506EA
:101230000895092E0394000C11F4882352F0BB0F7B
:1012400040F4BF2B11F460FF04C06F5F7F4F8F4FDE
:101250009F4F089557FD9058440F551F59F05F3F19
:1012600071F04795880F97FB991F61F09F3F79F0C8
:1012700087950895121613061406551FF2CF46954A
:10128000F1DF08C0161617061806991FF1CF8695CC
:101290007105610508940895E894BB2766277727B0
:1012A000CB0197F908952F923F924F925F926F92E0
:1012B0007F928F929F92AF92BF92CF92DF92EF92E6
:1012C000FF920F931F93CF93DF93CDB7DEB7CA1B67
:1012D000DB0B0FB6F894DEBF0FBECDBF09942A8892
:1012E000398848885F846E847D848C849B84AA843A
:1012F000B984C884DF80EE80FD800C811B81AA81C7
:10130000B981CE0FD11D0FB6F894DEBF0FBECDBF91
:10131000ED0108955058BB27AA270E94A2090C94FA
:1013200019090E940B0938F00E94120920F039F4C3
:101330009F3F19F426F40C9408090EF4E095E7FB9E
:101340000C940209E92F0E942A0958F3BA17620780
:1013500073078407950720F079F4A6F50C944C09DF
:101360000EF4E0950B2EBA2FA02D0B01B9019001C0
:101370000C01CA01A0011124FF27591B99F0593F04
:1013800050F4503E68F11A16F040A22F232F342F4C
:101390004427585FF3CF469537952795A795F0409A
:1013A0005395C9F77EF41F16BA0B620B730B840BAF
:1013B000BAF09150A1F0FF0FBB1F661F771F881F67
:1013C000C2F70EC0BA0F621F731F841F48F48795BF
:1013D00077956795B795F7959E3F08F0B0CF9395B1
:1013E000880F08F09927EE0F9795879508950E942A
:1013F0000B0A0C9419090E94120958F00E940B095B
:1014000040F029F45F3F29F00C94020951110C942B
:101410004D090C9408090E942A0968F39923B1F335
:10142000552391F3951B550BBB27AA27621773070A
:10143000840738F09F5F5F4F220F331F441FAA1F9E
:10144000A9F335D00E2E3AF0E0E832D0915050405A
:10145000E695001CCAF72BD0FE2F29D0660F771F08
:10146000881FBB1F261737074807AB07B0E809F0EE
:10147000BB0B802DBF01FF2793585F4F3AF09E3F73
:10148000510578F00C9402090C944D095F3FE4F388
:10149000983ED4F3869577956795B795F7959F5FB6
:1014A000C9F7880F911D9695879597F90895E1E002
:1014B000660F771F881FBB1F621773078407BA0761
:1014C00020F0621B730B840BBA0BEE1F88F7E095BC
:1014D00008950E94710808F48FEF0895EE0FFF1F22
:1014E0000590F491E02D09940F931F93CF93DF9310
:1014F0008230910510F482E090E0E091E001F091FB
:10150000E10130E020E0B0E0A0E0309799F421154F
:10151000310509F44AC0281B390B24303105D8F5B0
:101520008A819B816115710589F1FB019383828317
:10153000FE0111C040815181028113814817590772
:10154000E0F04817590799F4109761F012960C9340
:10155000129713961C933296CF01DF91CF911F9172
:101560000F9108950093E0011093E101F4CF21154C
:10157000310551F04217530738F0A901DB019A01F8
:10158000BD01DF01F801C1CFEF01F9CF9093E10177
:101590008093E001CDCFFE01E20FF31F8193919381
:1015A0002250310939832883D7CF2091DE01309131
:1015B000DF01232B41F4209102013091030130938C
:1015C000DF012093DE0120910001309101012115FE
:1015D000310541F42DB73EB740910401509105010A
:1015E000241B350BE091DE01F091DF01E217F307D8
:1015F000A0F42E1B3F0B2817390778F0AC014E5F83
:101600005F4F2417350748F04E0F5F1F5093DF01DF
:101610004093DE01819391939FCFF0E0E0E09CCF77
:10162000CF93DF930097E9F0FC0132971382128287
:10163000A091E001B091E101ED0130E020E01097D0
:10164000A1F420813181820F931F2091DE0130911E
:10165000DF012817390709F061C0F093DF01E0933B
:10166000DE01DF91CF910895EA01CE17DF07E8F59B
:101670004A815B819E0141155105B1F7E901FB8368
:10168000EA8349915991C40FD51FEC17FD0761F406
:10169000808191810296840F951FE9019983888347
:1016A000828193819B838A83F0E0E0E012968D91A2
:1016B0009C9113970097B9F52D913C911197CD010D
:1016C0000296820F931F2091DE013091DF012817CF
:1016D000390739F6309751F51092E1011092E00187
:1016E000B093DF01A093DE01BCCFD383C2834081DE
:1016F0005181840F951FC817D90761F44E5F5F4F62
:1017000088819981480F591F518340838A819B8129
:10171000938382832115310509F0B0CFF093E10165
:10172000E093E0019ECFFD01DC01C0CF1382128265
:10173000D7CFB0E0A0E0EFE9FBE00C9455098C01B5
:10174000009751F4CB010E94740A8C01C801CDB7F7
:10175000DEB7E0E10C947109FC01E60FF71F9C0174
:1017600022503109E217F30708F49DC0D901CD9149
:10177000DC911197C617D70798F0C530D10530F323
:10178000CE0104978617970708F3C61BD70B22973D
:10179000C193D1936D937C93CF010E94100BD6CF50
:1017A0005B01AC1ABD0A4C018C0E9D1EA091E0019C
:1017B000B091E101512C412CF12CE12C109731F525
:1017C0008091DE019091DF018815990509F05CC0D8
:1017D0004616570608F058C080910001909101010B
:1017E000009741F48DB79EB74091040150910501D7
:1017F000841B950BE817F90708F055C0F093DF013B
:10180000E093DE01F90171836083A0CF8D919C91FB
:10181000119712966C90129713967C901397A815B7
:10182000B90559F56C0142E0C40ED11CCA14DB04A1
:1018300020F1AC014A195B09DA011296159780F084
:101840006282738251834083D9016D937C93E1144A
:10185000F10471F0D7011396FC93EE93129776CFB3
:1018600022968C0F9D1FF90191838083F301EFCFA6
:10187000F093E101E093E00169CF4816590608F4BE
:101880002C017D01D3019ACFCB010E94740A7C0107
:10189000009749F0AE01B8010E94560CC8010E94A1
:1018A000100B870153CF10E000E050CFFB01DC01AB
:1018B00002C001900D9241505040D8F70895FB01AD
:1018C000DC0101900D920020E1F70895F894FFCF1C
:1018D0000000E201800000000000A40104013101C9
:1018E000F1016201400154014B6F686D004D6F685A
:1018F0006D00760044696F64652064726F703A0011
:041900000D0A0000CC
:00000001FF
